{
  "_format": "hh-sol-artifact-1",
  "contractName": "MoonmanRewards",
  "sourceName": "contracts/moonman-rewards.sol",
  "abi": [
    {
      "inputs": [],
      "name": "Balance__NeedsMoreThanZero",
      "type": "error"
    },
    {
      "stateMutability": "payable",
      "type": "fallback"
    },
    {
      "inputs": [
        {
          "internalType": "address",
          "name": "account",
          "type": "address"
        }
      ],
      "name": "calculateCurrentPendingRewards",
      "outputs": [
        {
          "internalType": "uint256",
          "name": "",
          "type": "uint256"
        }
      ],
      "stateMutability": "nonpayable",
      "type": "function"
    },
    {
      "inputs": [
        {
          "internalType": "address",
          "name": "account",
          "type": "address"
        }
      ],
      "name": "getMoonBalance",
      "outputs": [
        {
          "internalType": "uint256",
          "name": "",
          "type": "uint256"
        }
      ],
      "stateMutability": "view",
      "type": "function"
    },
    {
      "inputs": [
        {
          "internalType": "address",
          "name": "account",
          "type": "address"
        }
      ],
      "name": "getPendingRewards",
      "outputs": [
        {
          "internalType": "uint256",
          "name": "",
          "type": "uint256"
        }
      ],
      "stateMutability": "nonpayable",
      "type": "function"
    },
    {
      "inputs": [
        {
          "internalType": "address",
          "name": "account",
          "type": "address"
        }
      ],
      "name": "withdraw",
      "outputs": [],
      "stateMutability": "nonpayable",
      "type": "function"
    },
    {
      "stateMutability": "payable",
      "type": "receive"
    }
  ],
  "bytecode": "0x608060405273b404c51bbc10dcbe948077f18a4b8e553d160084600160006101000a81548173ffffffffffffffffffffffffffffffffffffffff021916908373ffffffffffffffffffffffffffffffffffffffff160217905550600060025534801561006a57600080fd5b5060016000819055506108a5806100826000396000f3fe6080604052600436106100435760003560e01c80630b2039b01461006557806318191c22146100a257806351cff8d9146100df578063f6ed20171461010857610063565b3661006357346002600082825461005a9190610661565b92505081905550005b005b34801561007157600080fd5b5061008c6004803603810190610087919061051c565b610145565b604051610099919061062a565b60405180910390f35b3480156100ae57600080fd5b506100c960048036038101906100c4919061051c565b6102c5565b6040516100d6919061062a565b60405180910390f35b3480156100eb57600080fd5b506101066004803603810190610101919061051c565b610379565b005b34801561011457600080fd5b5061012f600480360381019061012a919061051c565b6104e0565b60405161013c919061062a565b60405180910390f35b600080610151836102c5565b905060025460648261016391906106b7565b61016d91906106e8565b600460008573ffffffffffffffffffffffffffffffffffffffff1673ffffffffffffffffffffffffffffffffffffffff16815260200190815260200160002081905550600360008473ffffffffffffffffffffffffffffffffffffffff1673ffffffffffffffffffffffffffffffffffffffff16815260200190815260200160002054600460008573ffffffffffffffffffffffffffffffffffffffff1673ffffffffffffffffffffffffffffffffffffffff1681526020019081526020016000205461023a9190610742565b600560008573ffffffffffffffffffffffffffffffffffffffff1673ffffffffffffffffffffffffffffffffffffffff16815260200190815260200160002081905550600560008473ffffffffffffffffffffffffffffffffffffffff1673ffffffffffffffffffffffffffffffffffffffff16815260200190815260200160002054915050919050565b6000600160009054906101000a900473ffffffffffffffffffffffffffffffffffffffff1673ffffffffffffffffffffffffffffffffffffffff166370a08231836040518263ffffffff1660e01b815260040161032291906105ef565b60206040518083038186803b15801561033a57600080fd5b505afa15801561034e573d6000803e3d6000fd5b505050506040513d601f19601f820116820180604052508101906103729190610549565b9050919050565b6000610384826104e0565b9050600081116103c0576040517f1b61750e00000000000000000000000000000000000000000000000000000000815260040160405180910390fd5b600082905060008173ffffffffffffffffffffffffffffffffffffffff16620f4240846103ed91906106b7565b6108fc906040516103fd906105da565b600060405180830381858888f193505050503d806000811461043b576040519150601f19603f3d011682016040523d82523d6000602084013e610440565b606091505b5050905080610484576040517f08c379a000000000000000000000000000000000000000000000000000000000815260040161047b9061060a565b60405180910390fd5b82600360008673ffffffffffffffffffffffffffffffffffffffff1673ffffffffffffffffffffffffffffffffffffffff16815260200190815260200160002060008282546104d39190610661565b9250508190555050505050565b60006104eb82610145565b9050919050565b60008135905061050181610841565b92915050565b60008151905061051681610858565b92915050565b60006020828403121561053257610531610810565b5b6000610540848285016104f2565b91505092915050565b60006020828403121561055f5761055e610810565b5b600061056d84828501610507565b91505092915050565b61057f81610776565b82525050565b6000610592601483610650565b915061059d82610815565b602082019050919050565b60006105b5600083610645565b91506105c08261083e565b600082019050919050565b6105d4816107a8565b82525050565b60006105e5826105a8565b9150819050919050565b60006020820190506106046000830184610576565b92915050565b6000602082019050818103600083015261062381610585565b9050919050565b600060208201905061063f60008301846105cb565b92915050565b600081905092915050565b600082825260208201905092915050565b600061066c826107a8565b9150610677836107a8565b9250827fffffffffffffffffffffffffffffffffffffffffffffffffffffffffffffffff038211156106ac576106ab6107b2565b5b828201905092915050565b60006106c2826107a8565b91506106cd836107a8565b9250826106dd576106dc6107e1565b5b828204905092915050565b60006106f3826107a8565b91506106fe836107a8565b9250817fffffffffffffffffffffffffffffffffffffffffffffffffffffffffffffffff0483118215151615610737576107366107b2565b5b828202905092915050565b600061074d826107a8565b9150610758836107a8565b92508282101561076b5761076a6107b2565b5b828203905092915050565b600061078182610788565b9050919050565b600073ffffffffffffffffffffffffffffffffffffffff82169050919050565b6000819050919050565b7f4e487b7100000000000000000000000000000000000000000000000000000000600052601160045260246000fd5b7f4e487b7100000000000000000000000000000000000000000000000000000000600052601260045260246000fd5b600080fd5b7f4661696c656420746f2073656e64206574686572000000000000000000000000600082015250565b50565b61084a81610776565b811461085557600080fd5b50565b610861816107a8565b811461086c57600080fd5b5056fea2646970667358221220ddb2ff29825f33795049c6af63a659ef2d3235f9fe2a1f8e22b20ec865fe9b6864736f6c63430008070033",
  "linkReferences": {},
  "deployedLinkReferences": {}
}